{
  "abi": [
    {
      "inputs": [
        {
          "internalType": "address",
          "name": "_token",
          "type": "address"
        },
        {
          "internalType": "uint256",
          "name": "_APR",
          "type": "uint256"
        }
      ],
      "stateMutability": "nonpayable",
      "type": "constructor"
    },
    {
      "inputs": [],
      "name": "APR",
      "outputs": [
        {
          "internalType": "uint256",
          "name": "",
          "type": "uint256"
        }
      ],
      "stateMutability": "view",
      "type": "function"
    },
    {
      "inputs": [],
      "name": "YEAR_IN_SECONDS",
      "outputs": [
        {
          "internalType": "uint256",
          "name": "",
          "type": "uint256"
        }
      ],
      "stateMutability": "view",
      "type": "function"
    },
    {
      "inputs": [
        {
          "internalType": "address",
          "name": "_holder",
          "type": "address"
        }
      ],
      "name": "addHolder",
      "outputs": [],
      "stateMutability": "nonpayable",
      "type": "function"
    },
    {
      "inputs": [],
      "name": "cull",
      "outputs": [],
      "stateMutability": "nonpayable",
      "type": "function"
    },
    {
      "inputs": [],
      "name": "cullInterval",
      "outputs": [
        {
          "internalType": "uint256",
          "name": "_cullInterval",
          "type": "uint256"
        }
      ],
      "stateMutability": "view",
      "type": "function"
    },
    {
      "inputs": [
        {
          "internalType": "address",
          "name": "",
          "type": "address"
        }
      ],
      "name": "holderIndex",
      "outputs": [
        {
          "internalType": "uint256",
          "name": "",
          "type": "uint256"
        }
      ],
      "stateMutability": "view",
      "type": "function"
    },
    {
      "inputs": [
        {
          "internalType": "uint256",
          "name": "",
          "type": "uint256"
        }
      ],
      "name": "holderList",
      "outputs": [
        {
          "internalType": "address",
          "name": "",
          "type": "address"
        }
      ],
      "stateMutability": "view",
      "type": "function"
    },
    {
      "inputs": [],
      "name": "lastCullTime",
      "outputs": [
        {
          "internalType": "uint256",
          "name": "",
          "type": "uint256"
        }
      ],
      "stateMutability": "view",
      "type": "function"
    },
    {
      "inputs": [
        {
          "internalType": "address",
          "name": "_holder",
          "type": "address"
        }
      ],
      "name": "removeHolder",
      "outputs": [],
      "stateMutability": "nonpayable",
      "type": "function"
    },
    {
      "inputs": [],
      "name": "token",
      "outputs": [
        {
          "internalType": "contract IERC20",
          "name": "",
          "type": "address"
        }
      ],
      "stateMutability": "view",
      "type": "function"
    }
  ],
  "bytecode": {
    "object": "0x60806040523480156200001157600080fd5b5060405162000c3838038062000c388339810160408190526200003491620001a7565b6040805180820190915260038152626b656b60e81b60208201526200005990620000e7565b600080546001600160a01b0319166001600160a01b038416179055600281905560408051808201909152600f81526e0626c6f636b2e74696d657374616d7608c1b6020820152620000ab904262000135565b42600181905560408051808201909152600c81526b6c61737443756c6c54696d6560a01b6020820152620000df9162000135565b50506200026b565b6200013281604051602401620000fe91906200022b565b60408051601f198184030181529190526020810180516001600160e01b0390811663104c13eb60e21b179091526200018616565b50565b6200018282826040516024016200014e92919062000247565b60408051601f198184030181529190526020810180516001600160e01b039081166309710a9d60e41b179091526200018616565b5050565b80516a636f6e736f6c652e6c6f67602083016000808483855afa5050505050565b60008060408385031215620001bb57600080fd5b82516001600160a01b0381168114620001d357600080fd5b6020939093015192949293505050565b6000815180845260005b818110156200020b57602081850181015186830182015201620001ed565b506000602082860101526020601f19601f83011685010191505092915050565b602081526000620002406020830184620001e3565b9392505050565b6040815260006200025c6040830185620001e3565b90508260208301529392505050565b6109bd806200027b6000396000f3fe608060405234801561001057600080fd5b506004361061009e5760003560e01c8063bb687e1111610066578063bb687e111461011c578063bd30558e14610124578063e9bbb0401461012d578063fa12ebe11461014d578063fc0c546a1461015657600080fd5b806316ad42ad146100a357806322121f58146100d35780637847ea53146100dd5780638dd42808146100f6578063ac1e17df14610109575b600080fd5b6100b66100b1366004610772565b610169565b6040516001600160a01b0390911681526020015b60405180910390f35b6100db610193565b005b6100e86301e1338081565b6040519081526020016100ca565b6100db61010436600461078b565b610499565b6100db61011736600461078b565b610615565b6100e86106cf565b6100e860025481565b6100e861013b36600461078b565b60036020526000908152604090205481565b6100e860015481565b6000546100b6906001600160a01b031681565b6004818154811061017957600080fd5b6000918252602090912001546001600160a01b0316905081565b6000600154426101a391906107d1565b905060008060009054906101000a90046001600160a01b03166001600160a01b03166318160ddd6040518163ffffffff1660e01b8152600401602060405180830381865afa1580156101f9573d6000803e3d6000fd5b505050506040513d601f19601f8201168201806040525081019061021d91906107ea565b9050600060646002546102309190610819565b61023b90600161082d565b90506301e13380600061024e8286610819565b90506000600161025e8386610924565b61026891906107d1565b905060006102768287610930565b6004549091506000904261028b6001436107d1565b406040516020016102a6929190918252602082015260400190565b6040516020818303038152906040528051906020012060001c6102c99190610947565b90505b811561048b576000600482815481106102e7576102e761095b565b600091825260208220015481546040516370a0823160e01b81526001600160a01b039283166004820181905294509116906370a0823190602401602060405180830381865afa15801561033e573d6000803e3d6000fd5b505050506040513d601f19601f8201168201806040525081019061036291906107ea565b905060008482106103735784610375565b815b60005460405163079cc67960e41b81526001600160a01b038681166004830152602482018490529293509116906379cc679090604401600060405180830381600087803b1580156103c557600080fd5b505af11580156103d9573d6000803e3d6000fd5b5050505080856103e991906107d1565b6000546040516370a0823160e01b81526001600160a01b0386811660048301529297509116906370a0823190602401602060405180830381865afa158015610435573d6000803e3d6000fd5b505050506040513d601f19601f8201168201806040525081019061045991906107ea565b6000036104695761046983610499565b60045461047785600161082d565b6104819190610947565b93505050506102cc565b505042600155505050505050565b6001600160a01b0381166000908152600360205260409020546104fb5760405162461bcd60e51b8152602060048201526015602482015274121bdb19195c88191bd95cc81b9bdd08195e1a5cdd605a1b60448201526064015b60405180910390fd5b6001600160a01b038116600090815260036020526040812054610520906001906107d1565b60048054919250600091610536906001906107d1565b815481106105465761054661095b565b600091825260209091200154600480546001600160a01b0390921692508291849081106105755761057561095b565b600091825260209091200180546001600160a01b0319166001600160a01b03929092169190911790556105a982600161082d565b6001600160a01b03821660009081526003602052604090205560048054806105d3576105d3610971565b60008281526020808220830160001990810180546001600160a01b03191690559092019092556001600160a01b03949094168152600390935250506040812055565b6001600160a01b038116600090815260036020526040902054156106735760405162461bcd60e51b8152602060048201526015602482015274486f6c64657220616c72656164792065786973747360581b60448201526064016104f2565b600480546001810182557f8a35acfbc15ff81a39ae7d344fd709f28e8600b4aa8c65c6b64bfe7fe36bd19b0180546001600160a01b039093166001600160a01b0319909316831790555460009182526003602052604090912055565b60008054604080516318160ddd60e01b8152905183926001600160a01b0316916318160ddd9160048083019260209291908290030181865afa158015610719573d6000803e3d6000fd5b505050506040513d601f19601f8201168201806040525081019061073d91906107ea565b905060006064600254836107519190610930565b61075b9190610819565b905061076b816301e13380610819565b9250505090565b60006020828403121561078457600080fd5b5035919050565b60006020828403121561079d57600080fd5b81356001600160a01b03811681146107b457600080fd5b9392505050565b634e487b7160e01b600052601160045260246000fd5b818103818111156107e4576107e46107bb565b92915050565b6000602082840312156107fc57600080fd5b5051919050565b634e487b7160e01b600052601260045260246000fd5b60008261082857610828610803565b500490565b808201808211156107e4576107e46107bb565b600181815b8085111561087b578160001904821115610861576108616107bb565b8085161561086e57918102915b93841c9390800290610845565b509250929050565b600082610892575060016107e4565b8161089f575060006107e4565b81600181146108b557600281146108bf576108db565b60019150506107e4565b60ff8411156108d0576108d06107bb565b50506001821b6107e4565b5060208310610133831016604e8410600b84101617156108fe575081810a6107e4565b6109088383610840565b806000190482111561091c5761091c6107bb565b029392505050565b60006107b48383610883565b80820281158282048414176107e4576107e46107bb565b60008261095657610956610803565b500690565b634e487b7160e01b600052603260045260246000fd5b634e487b7160e01b600052603160045260246000fdfea2646970667358221220cb0cda7b499a09842d2274cfb02c26abd48b6008bd34d8f5c89786def639a29764736f6c63430008130033",
    "linkReferences": {}
  },
  "methodIdentifiers": {
    "APR()": "bd30558e",
    "YEAR_IN_SECONDS()": "7847ea53",
    "addHolder(address)": "ac1e17df",
    "cull()": "22121f58",
    "cullInterval()": "bb687e11",
    "holderIndex(address)": "e9bbb040",
    "holderList(uint256)": "16ad42ad",
    "lastCullTime()": "fa12ebe1",
    "removeHolder(address)": "8dd42808",
    "token()": "fc0c546a"
  },
  "id": 0
}